:020000040800F2
:100000000002001071510008C585000871840008C5
:10001000AD840008E9840008258500080000000080
:10002000000000000000000000000000B19B00087C
:10003000B186000800000000218700081151000867
:100040001151000811510008115100081151000808
:1000500011510008115100081151000811510008F8
:1000600011510008115100081151000811510008E8
:10007000F993000811510008BD93000811510008C0
:10008000E14A0008115100081151000811510008FF
:1000900011510008115100081151000811510008B8
:1000A00011510008115100081151000811510008A8
:1000B0001151000811510008115100081151000898
:1000C0001151000811510008115100081151000888
:1000D0001151000809930008459300088193000816
:1000E0001151000811510008115100081151000868
:1000F0001151000811510008115100081151000858
:1001000011510008B19E000881AD0008115100088E
:100110001151000811510008115100081151000837
:10012000115100081151000811510008759E000876
:100130001151000811510008115100081151000817
:100140001151000811510008115100081151000807
:1001500011510008115100081151000811510008F7
:1001600011510008115100081151000811510008E7
:1001700011510008115100081151000811510008D7
:10018000115100081151000808B5062000F020FFA9
:10019000012007F037FD00BF00B587B01446049377
:1001A00005900E4607F050FDDDE90423C06844B118
:1001B00005490096CDE90114044900F083F9FFF7E1
:1001C000E3FF03490C46F4E798820208A88202087C
:1001D0008879020808B513460022FFF7DDFF00BF4B
:1001E00010B40C4613460146224602205DF8044B2B
:1001F00007F006BD38B5002504468181C281C0E9FB
:100200000055C0E904558560856785612946082247
:10021000703000F08DFE07480749084A084B2462F9
:10022000C4E91855C4E91A55C4E90901C4E90B2306
:1002300038BD00BFF5100008251100086D11000839
:10024000AD1100080D4B4168994210B5044601D02C
:1002500002F0F2F9A1680A4B994202D0204602F05E
:10026000EBF9E168074B994202D0204602F0E4F92D
:1002700020460549BDE8104000F05AB9800800103A
:1002800000090010800900103926000808B5836FA6
:10029000DA0702D483899B0501D5002008BD6030B0
:1002A0000AF0ACFE002008BD08B5836FDA0702D45F
:1002B00083899B0501D5002008BD60300AF0D8FE77
:1002C000002008BD70B54D1EED010E4605F19001F0
:1002D00000F0AEF9044640B100211030666005F12F
:1002E00080022160A06000F023FE204670BD00BFA8
:1002F000014B1868FFF7A6BFC472020870B5044628
:1003000019480AF07BFEA369BBB918491848096867
:10031000184A2262A142026A6364C4E90F3300F101
:10032000800608BF012300F5807508BF8B61C4E912
:100330000265606032B10123A361BDE870400A48E4
:100340000AF096BE0323C1E910300421FFF752FFE3
:10035000304601220821FFF74DFF284602221221D4
:10036000FFF748FFE7E700BFFC070010C472020870
:100370008008001045020008F0B583B001A90746C7
:1003800001200AF09DFE29480AF038FE284B1E681D
:10039000B369002B33D03C36D6E90134013B04D598
:1003A00029E05A1C04F1800425D0B4F90C50013B1B
:1003B000002DF6D11F4BE360C4E91855C4E91A5566
:1003C0001A48A5670AF054FE01A901980AF078FEC0
:1003D000C4E90155C4E904552560A56108222946F0
:1003E00004F1700000F0A4FDC4E90D55C4E91255F4
:1003F000204603B0F0BD34682CB12646CCE7304629
:10040000FFF77CFFC7E704213846FFF75BFF044690
:1004100030600028F1D105480AF02AFE019801A9B0
:100420000AF04EFE0C233B60E2E700BF0C08001010
:10043000C47202080100FFFF01480AF0DFBD00BFDF
:100440000C08001001480AF013BE00BF0C08001091
:1004500001480AF0D3BD00BFFC07001001480AF0B4
:1004600007BE00BFFC07001008B505480AF0C6FD2E
:1004700007F0EAFBBDE80840024900F039B800BFC8
:100480000C0800108D02000808B507F0DDFB0449D8
:1004900000F02EF8BDE8084002480AF0E9BD00BFB0
:1004A000A90200080C0800100CB400B583B004AB1E
:1004B00053F8042B019301F079F903B05DF804EBD4
:1004C00002B070470EB400B584B005AB009053F88D
:1004D000042B0192039307F0B7FBDDE90012039BA5
:1004E00001F064F904B05DF804EB03B0704700BF9D
:1004F0002DE9F04100F13C0788460026D7E9015478
:10050000013D0FD4A389012B05F1FF3506D9B4F9BC
:100510000E30013302D02046C04706436B1C04F165
:100520008004EFD13F68002FE8D13046BDE8F0816C
:100530002DE9F8430746884600F13C064FF00009D4
:10054000D6E90154013D11D4A389012B05F1FF35F2
:1005500008D9B4F90E30013304D021463846C047DB
:1005600049EA00096B1C04F18004EDD13668002EC5
:10057000E6D14846BDE8F88370B4124C04F58065B6
:1005800054F8083F5E6826F003060F2E3146D4BFAC
:1005900000200120E368A34208D05A68DB6822F0FB
:1005A0000302A34200F101001144F6D10834A54230
:1005B000F0D1054B1A685860521AC3E90816DA617F
:1005C00070BC70478802001020080010F8B50B4D71
:1005D000064608460F4607F033FBFFF7CDFF0FCD69
:1005E00034460FC40FCD0FC495E8030084E8030020
:1005F000384607F027FB3046F8BD00BF2008001042
:1006000000B583B0019007F01FFB019903B05DF8BE
:1006100004EB00F00DB800BF00B583B0019007F007
:1006200013FB019903B05DF804EB02F07FBA00BF41
:100630002DE9F04F01F10B05162D83B0064623D8A6
:10064000102900F2A78007F0FBFA102502201823DA
:10065000CD4F3B44A3F108025C68944200F0A780B0
:10066000636823F003032344D4E902515A68E96024
:1006700042F0010230468D605A6007F0E3FA083418
:10068000204603B0BDE8F08F35F0070500F1828009
:10069000A9427FD807F0D4FAB5F5FC7FC0F0AC8151
:1006A0006B0A7ED0042B00F27581AB0903F139008F
:1006B00003F1380CC300B44F3B44A3F108015C685C
:1006C000A14206D10CE0002A80F22A81E468A1420E
:1006D00006D0636823F003035A1B0F2AF3DD60463C
:1006E0003C69DFF8A88244456CD0626822F00302BE
:1006F000531B0F2B00F38E81002BC7E9048880F277
:100700007F81B2F5007F80F01981D1080131520953
:10071000012393407A6857F831C0C4F808C007EB4A
:10072000C10E1343AEF10802E2607B6047F831402E
:10073000CCF80C4082104FF0010C0CFA02FC9C45E6
:1007400048D81CEA030F08D120F003004FEA4C0CF4
:100750001CEA030F00F10400F8D007EBC00AD646EC
:100760008146DEF80C300BE0596821F003014A1B8A
:100770000F2A1C46DB6800F31981002A80F22F81C2
:100780009E45F1D109F1010919F0030F0EF1080E90
:10079000E7D167E10C2333600024204603B0BDE8B5
:1007A000F08F4FF4007340204FF03F0C83E7DC687C
:1007B000A34208BF02307FF453AF3C69DFF8CC811D
:1007C000444592D17B6882104FF0010C0CFA02FC78
:1007D0009C45B6D9BC68636823F003094D4504D82D
:1007E000A9EB05030F2B00F38B80DFF8A4A1D7F84A
:1007F0000824DAF8003001322B441BBF03F20F4803
:1008000028F47F7803F1100828F0030841463046A9
:1008100007F0FCF9411C04EB090B024600F01481BF
:10082000834500F20F81DAF804104144CAF804103D
:100830000B4600F06581D7F8081401311BBFA2EB0D
:100840000B0B5B44C7F80824CAF8043012F0070306
:1008500000F02C81C3F108010A449044C3F5816182
:10086000A1EB0801C1F3090B5946304601920093F0
:1008700007F0CCF9421CDDE9003200F06581801AF6
:1008800000EB0B08DAF80400BA6048F001030BEB48
:100890000001BC425360CAF8041000F03C81B9F179
:1008A0000F0F40F23A816368A9F10C0020F00700B5
:1008B00003F0010304EB000C03434FF0050E0F2877
:1008C0006360CCE901EE00F2468153681446DAF821
:1008D0002C208A42DAF8302038BFCAF82C108A421D
:1008E00038BFCAF8301023F003084545A8EB0503CC
:1008F00001D80F2B04DC304607F0A4F900244CE7A4
:10090000621943F0010345F0010565603046BA60A5
:10091000536007F097F90834204603B0BDE8F08F24
:100920002344E1685A68A56842F00102E960304654
:100930008D605A6007F086F908342EE7B2F5206F13
:100940004FEA522378D3142B00F2C28003F15C01EA
:10095000C9005B3307EB010C7958ACF1080C8C45EE
:1009600000F09B804B6823F00303934202D989680F
:100970008C45F7D1D1F80CC07B68C4E9021CCCF8D7
:100980000840CC60D6E600BF88020010900200103C
:100990001C080010142B5AD9542B00F2A1802B0BE9
:1009A00003F16F0003F16E0CC30084E6D4F808E095
:1009B00004EB050C45F00105656042F00105CEF839
:1009C0000C303046C3F808E0C7E904CCCCE9028813
:1009D000CCF80450625007F035F90834DDE62144C4
:1009E00054F8085F4A6842F001024A603046EB6002
:1009F0009D6007F027F9D0E6E80805F1080327E62F
:100A000022443046536843F001035360083407F032
:100A100019F9C2E6611945F0010C43F00105C4F86B
:100A200004C03046C7E90411C1E902884D60A350F3
:100A300007F008F90834B0E6930903F13901C90059
:100A4000383387E7BC4255D0BC6863684BE703F195
:100A50005C0003F15B0CC3002DE65AF808395345DE
:100A600040F0978010F0030F00F1FF30F5D17B6864
:100A700023EA0C037B604FEA4C0C9C453FF6AAAE80
:100A8000BCF1000F04D1A5E64FEA4C0C09F10409B2
:100A90001CEA030FF8D048465FE69A104FF0010EAB
:100AA0007B680EFA02F213437B6066E702EB0801F3
:100AB0004942C1F3090B594630460193009207F0B1
:100AC000A5F8431CDDE900237FF4D9AE9B46D9E6A7
:100AD000542B25D8130B03F16F01C9006E3339E78E
:100AE000B3F5AA7F25D8EB0B03F1780003F1770C5F
:100AF000C300E0E5DAF804304344CAF804309AE66B
:100B0000CBF3090000287FF496AEBC68C84448F0D7
:100B100001036360DBE61446D9E601235360EAE68D
:100B2000B3F5AA7F21D8D30B03F17801C90077333D
:100B300010E740F25452934221D8AB0C03F17D00F0
:100B400003F17C0CC300B6E5083B9844A8EB02080F
:100B50004FF0000B96E604F10801304601F0E6FF85
:100B6000BC68DAF804106368B1E640F254518B4275
:100B70000BD8930C03F17D01C9007C33EAE64FF4F6
:100B80007E737F204FF07E0C95E54FF47E717E23BF
:100B9000E0E67B686FE700BF000000000000000097
:100BA00001F0FF01102A2BDB10F0070F08D010F81E
:100BB000013B013A8B422DD010F0070F42B3F6D122
:100BC000F0B441EA012141EA014122F007047FF03B
:100BD00000070023F0E80256083C85EA010586EA92
:100BE000010685FA47F5A3FA87F586FA47F6A5FACE
:100BF00087F68EB9EED1F0BC01F0FF0102F00702DA
:100C000032B110F8013B013A83EA010313B1F8D184
:100C10000020704701387047002D06BF3546033865
:100C2000073815F0010F07D1013015F4807F02BF9E
:100C3000013015F4C03F0130F0BC0138704700BFEF
:100C4000032A70B412D940EA0105AD0704460B46E9
:100C50001ED11946204653F8045B54F8046BAE428B
:100C600016D1043A032A20461946F2D8561EA2B1DC
:100C70000139441E01E0C3180CD014F8015F11F8CB
:100C8000012F9542A6EB0403F5D0A81A70BC70475B
:100C9000561EEDE7184670BC70471046F6E700BFD9
:100CA000844641EA000313F003036DD1403A41D377
:100CB00051F8043B40F8043B51F8043B40F8043B36
:100CC00051F8043B40F8043B51F8043B40F8043B26
:100CD00051F8043B40F8043B51F8043B40F8043B16
:100CE00051F8043B40F8043B51F8043B40F8043B06
:100CF00051F8043B40F8043B51F8043B40F8043BF6
:100D000051F8043B40F8043B51F8043B40F8043BE5
:100D100051F8043B40F8043B51F8043B40F8043BD5
:100D200051F8043B40F8043B51F8043B40F8043BC5
:100D3000403ABDD2303211D351F8043B40F8043B65
:100D400051F8043B40F8043B51F8043B40F8043BA5
:100D500051F8043B40F8043B103AEDD20C3205D375
:100D600051F8043B40F8043B043AF9D2043208D06D
:100D7000D2071CBF11F8013B00F8013B01D30B88DF
:100D800003806046704700BF082A13D38B078DD0BD
:100D900010F003038AD0C3F10403D21ADB071CBF8F
:100DA00011F8013B00F8013B80D331F8023B20F8F9
:100DB000023B7BE7043AD9D3013A11F8013B00F832
:100DC000013BF9D20B7803704B7843708B788370BA
:100DD000604670478842F0B40DD98B1883420AD917
:100DE000841832B1224613F8014D02F8014D9942A0
:100DF000F9D1F0BC70470F2A0ED80346541E002AC2
:100E0000F7D001340C44013B11F8012B03F8012FFA
:100E1000A142F9D1F0BC704740EA01039B073FD1E2
:100E2000A2F1100323F00F0401F1200727441B094E
:100E300001F1100400F1100554F8106C45F8106C25
:100E400054F80C6C45F80C6C54F8086C45F8086CB8
:100E500054F8046C45F8046C1034BC4205F11005DC
:100E6000EAD1013312F00C0F01EB031102F00F0471
:100E700000EB031317D0043C24F0030CA5089C449A
:100E80001C1F0E4656F8047B44F8047F6445F9D1D4
:100E90006C1C03EB840301EB840102F00302ADE759
:100EA000541E0346ADE72246A8E700BF70B483187E
:100EB000551E44199807CEB211D06AB1234603E0FB
:100EC00082070DD0013D07D3184613F80129B2421D
:100ED0001C46F5D170BC7047002070BC70471546A9
:100EE000032D0CD815B32346651B01E0AB42F3D0AC
:100EF000184613F80129B242F8D170BC70470902B4
:100F000089B2314341EA0141033C2346043C1A685B
:100F10004A40A2F1013020EA020212F0803F03D1E0
:100F2000043D032D2346F0D8DC1CDBE72846D1E73F
:100F3000F0B4860746D0541E002A3CD0CAB20346FD
:100F400001E0013C37D303F8012B9D07F9D1032CB5
:100F50002AD9CDB245EA05250F2C45EA054534D9F5
:100F6000A4F1100222F00F0C03F1200716096744C8
:100F700003F1100242E9045542E902551032BA4227
:100F8000F8D1721C14F00C0F03EB021204F00F06E0
:100F900013D0331F23F003030433134442F8045BDC
:100FA0009342FBD106F003042CB1CAB21C4403F8EF
:100FB000012B9C42FBD1F0BC704734461346002CF9
:100FC000F3D1F8E714460346C1E71A462646E0E7A0
:100FD00010B582B0019006F037FE044606F060FEC0
:100FE000019A0146204602B0BDE8104006F050BE0E
:100FF00010B582B00446019106F052FE019A0146F6
:10100000204602B0BDE8104006F042BE38B50C469E
:101010000968054609B1FFF7F9FF21462846BDE8F2
:10102000384001F083BD00BF314B1B68834259D06B
:10103000C26970B50546002A4FD0D16891B100262B
:101040008C5944B121462468284601F06FFD002CDC
:10105000F8D1EB69D9680436802EF1D1284601F029
:1010600065FDEA69116800293DD0284601F05EFD62
:10107000696911B1284601F059FDEA691AB11146B2
:10108000284601F053FD296B11B1284601F04EFDB1
:10109000696B11B1284601F049FDA96B11B12846D1
:1010A00001F044FDE96C11B1284601F03FFDA96C47
:1010B00011B1284601F03AFDE96A11B1284601F064
:1010C00035FDAB696BB12B6A28469847E96B41B196
:1010D0002846BDE87040FFF799BF41690029C9D192
:1010E000D1E770BD704769690029C3D1C7E700BF68
:1010F0003402001010B50C46B1F90E1006F074FE63
:10110000002807DBD4E91623121843EBE073C4E987
:10111000162310BDA38923F48053A38110BD00BF03
:10112000002070472DE9F041B1F90C509846EB05CD
:101130000C4682B0B1F90E10174606460AD425F4C3
:10114000805543463A463046A58102B0BDE8F0419D
:1011500006F0E2BD022300930022002306F09AFE6F
:10116000B4F90C50B4F90E10E9E700BF10B582B025
:101170000C460093B1F90E10D31706F08BFE4B1CF2
:1011800008BFB0F1FF3F024609D00B46A1891046C7
:1011900041F48051C4E91623A18102B010BDA18998
:1011A000104621F48051A18102B010BDB1F90E109A
:1011B00006F050BD11F0FF01034600F0030243D0DA
:1011C00092BB70B4046841EA012646EA064686EA04
:1011D0000405A5F10133A4F1013223EA050322EA53
:1011E0000402134313F0803F0FD150F8044F84EAF8
:1011F0000605A5F10132A4F1013322EA050223EA32
:101200000403134313F0803FEFD0037823B936E093
:1012100010F8013F002B32D09942F9D130E08A42D8
:1012200011D09A071846CCD0184613F8012B002A83
:10123000F5D1104670479907184607D01846013374
:101240000278002AF7D17047002AF7D10268A2F18C
:10125000013323EA020313F0803F08D150F8042F32
:10126000A2F1013323EA020313F0803FF6D00378A2
:10127000002BE8D010F8013F002BFBD17047184637
:1012800070BC70470000000000000000000000007B
:10129000000000000000000000000000000000004E
:1012A000A2EB0300704700BF02780B78012A28BF29
:1012B0009A42F5D16DE9044540EA0104CDE902679F
:1012C0006FF0000C4FEA447212B380EA010414F08C
:1012D000070F6AD100F0070420F0070004F00305AF
:1012E00021F007014FEAC505F0E8042314F0040FCC
:1012F000F1E804670CFA05F462EA040266EA0406FF
:101300000AD063EA0403624667EA0407664603E01C
:10131000F0E80423F1E8046782FA4CF582EA060457
:10132000A4FA8CF46CBB83FA4CF583EA0705A5FAA2
:101330008CF595B950E9022351E9026782FA4CF520
:1013400082EA0604A4FA8CF483FA4CF583EA0705D2
:10135000A5FA8CF52543DBD09CB92DBAB5FA85F4F6
:1013600024F0070427FA04F1DDE9026723FA04F305
:1013700003F0FF0001F0FF01FDE80445A0EB0100D0
:10138000704724BAB4FA84F424F0070426FA04F16E
:10139000DDE9026722FA04F202F0FF0001F0FF012A
:1013A000FDE80445A0EB0100704714F0030F3CD1A9
:1013B00010F0030428D150F8082B51F8083B82FAAA
:1013C0004CF582EA0305A5FA8CF55DB950F8042CBA
:1013D00051F8043C82FA4CF582EA0305A5FA8CF533
:1013E000002DE8D02DBAB5FA85F424F0070423FACD
:1013F00004F122FA04F202F0FF0001F0FF01FDE81F
:101400000445A0EB010070474FEAC40420F003003C
:1014100050F8082B21F0030151F8083B0CFA04F4B2
:1014200062EA040263EA0403C9E710F003041AD075
:10143000A1EB040120F00300E40750F8042B06D0D0
:101440000FD28B785FFAA2F4E41A06D12BB1CB78D5
:101450005FFAB2F4E41A00D11BB920465DF8104BD4
:10146000704701F1040150F8042BCC0721F003016F
:1014700051F8043B48D824D222F07F4482FA4CF53C
:1014800094EA1325A5FA8CF50AD165B951F8043B05
:1014900084EA0204B4EB036F0ED150F8042BEBE79F
:1014A0004FEA132355E035F07F454DD10878FDE82C
:1014B0000445C0F1000070474FEA126203F0FF03D9
:1014C00047E002EA1C4482FA4CF594EA1345A5FA77
:1014D0008CF50AD165B951F8043B84EA0204B4EBF7
:1014E000034F0CD150F8042BEBE74FEA134330E0E5
:1014F00015EA1C4528D10B884FEA124229E04FEA31
:10150000124203EA1C4324E002F0FF0482FA4CF585
:1015100094EA1365A5FA8CF50AD165B951F8043B34
:1015200084EA0204B4EB032F09D150F8042BEBE753
:101530004FEA13630DE015F0FF0F05D10B684FEA7A
:10154000122223F07F4304E04FF00000FDE8044541
:10155000704712BA1BBA82FA4CF482EA0304A4FA66
:101560008CF5B5FA85F402FA04F203FA04F34FEAB3
:101570001260FDE80445A0EB1360704780EA0102A9
:10158000844612F0030F4FD111F0030F32D14DF802
:10159000044D11F0040F51F8043B0BD0A3F10132BC
:1015A0009A4312F0803F04BF4CF8043B51F8043BCF
:1015B00016D100BF51F8044BA3F101329A4312F047
:1015C000803FA4F101320BD14CF8043BA24312F04E
:1015D000803F04BF51F8043B4CF8044BEAD023464B
:1015E0000CF8013B13F0FF0F4FEA3323F8D15DF8FD
:1015F000044B704711F0010F06D011F8012B0CF8C5
:10160000012B002A08BF704711F0020FBFD031F83C
:10161000022B12F0FF0F16BF2CF8022B8CF80020C3
:1016200012F47F4FB3D1704711F8012B0CF8012B46
:10163000002AF9D1704700BF000000000000000040
:1016400090F800F06DE9024520F007016FF0000C02
:1016500010F0070491F820F040F049804FF00004AA
:101660006FF00700D1E9002391F840F000F1080085
:1016700082FA4CF2A4FA8CF283FA4CF3A2FA8CF3BD
:101680004BBBD1E9022382FA4CF200F10800A4FA24
:101690008CF283FA4CF3A2FA8CF3E3B9D1E9042378
:1016A00082FA4CF200F10800A4FA8CF283FA4CF3AF
:1016B000A2FA8CF37BB9D1E9062301F1200182FA69
:1016C0004CF200F10800A4FA8CF283FA4CF3A2FA6F
:1016D0008CF3002BC6D0002A04BF04301A4612BA7D
:1016E000B2FA82F2FDE8024500EBD2007047D1E980
:1016F000002304F00305C4F100004FEAC50514F00F
:10170000040F91F840F00CFA05F562EA05021CBFDF
:1017100063EA050362464FF00004A9E72DE9F84F9C
:101720008B6F9C0490462DD59368126843B38B460B
:10173000064602F1080959E9025A5FEA9A0715D0EC
:10174000043D002401E0A7420ED055F8041F5A467C
:10175000304601F043F9431C04F10104F3D10023A6
:10176000C8E90133BDE8F88FD8F808302AF0030A39
:10177000A3EB0A03C8F8083009F10809002BDAD1F5
:101780000020ECE701F0DCFA0023C8E90133BDE8F2
:10179000F88F00BF10B4946814B15DF8044BBDE736
:1017A000204654605DF8044B704700BF2DE9F04FB0
:1017B0002DED028BABB008EE100A1C468A4693460C
:1017C000069318B18369002B00F03A820CA901201E
:1017D00009F076FCDAF87830BAF90C10DE078AB234
:1017E00002D48D0540F1658590040AD4DAF878308A
:1017F00041F4005223F40053AAF80C20CAF87830C0
:1018000092B2110740F1A980DAF81030002B00F0F5
:10181000A48002F01A030A2B00F0AE800023CDE969
:101820000E330893039318EE107A1AAB0D93984673
:101830009BF80030002B00F026815C4604E014F891
:10184000013F002B00F0FD80252BF8D1B4EB0B05F8
:1018500040F0FA802378002B00F015814FF0000350
:1018600000218DF82B304FF0FF3263780591084648
:10187000894604F1010B02920BF1010BA3F1200246
:10188000582A00F21E81DFE812F0B4021C011C018C
:10189000AF021C011C011C011C011C011C01A40243
:1018A0009F021C019A0280021C017B025900590010
:1018B00059005900590059005900590059001C019C
:1018C0001C011C011C011C011C011C011C011C0130
:1018D0001C015F021C011C011C011C011C011C01DC
:1018E0001C011C011C011C01CD001C011C011C0160
:1018F0001C011C0195001C011C01CB021C011C01D8
:101900001C011C011C011C011C011C011C011C01EF
:10191000BC02DE011C011C011C010703DE011C01CD
:101920001C01FA021C01E402CF0050024B021C0110
:101930002A021C0197001C011C010902A3F13002BC
:1019400000241BF8013B04EB840402EB4404A3F1E4
:101950003002092AF5D9059490E718EE100A51468D
:1019600000F004FE002840F08E84BAF80C2002F04B
:101970001A030A2B7FF452AFBAF90E30002BFFF690
:101980004DAFDAF87830DE0702D4950540F14B858B
:101990000CA90C9809F094FB18EE100A23465A463D
:1019A000514600F095FD039003982BB0BDEC028BDF
:1019B000BDE8F08F49F0100919F0200F069B00F0E8
:1019C0002F81073323F00703F3E802450693012331
:1019D0004FF000028DF82B2000220792029A114648
:1019E000013100F0608229F08001019154EA050183
:1019F00040F05782002A40F0DC84002B40F02B841A
:101A000019F00103049340F05D841AAE029B049A1E
:101A10009342B8BF1346079A0093002A64D001335B
:101A2000009361E049F0100919F0200300F0E7800D
:101A3000069B073323F00703F3E8024506930023D0
:101A4000C6E7B4EB0B051ED0DDE90E3201332A44A4
:101A5000072BCDE90E32C8F800B0C8F8045006DCF8
:101A600008F10808039A23782A440392F3E6002A2F
:101A700000F0D5830DAA51463846FFF74FFE40B916
:101A80000DF16808EEE70F9B002B40F0C1840023A6
:101A90000E93DAF87830DA0740F1A7800C980CA999
:101AA00009F00EFBBAF80C3013F0400F039B18BF7F
:101AB0004FF0FF33039303982BB0BDEC028BBDE8CE
:101AC000F08F002940F0A084002BDCD001228DF89B
:101AD00040304FF0000300928DF82B30049210AE8E
:101AE0000023CDF804900293019B13F0020302D06F
:101AF000009A02320092DDE90E2C019C501C14F079
:101B000084040146079405D1059C009D641B002CAC
:101B100000F3D9829DF82B4008F108007CB10CF14C
:101B2000010C0DF12B0401220729CDE90E1CC8E997
:101B3000004200F394820A46804601310830DBB14E
:101B40000CF1020C0BAA02230729CDE90E1CC8E9EF
:101B5000002340F3A082BCF1000F00F06C830DAABB
:101B600051463846FFF7DAFD002892D1DDE90E2C08
:101B70001CA8511C0DF16808079B802B00F0CD813B
:101B8000029B049C1D1B002D00F31682049A0E91EB
:101B9000134663440729C8E900620F930CDD002B4C
:101BA00000F0D6820DAA51463846FFF7B7FD00284F
:101BB0007FF46FAF0F9B1AA8019A510705D5059ABC
:101BC0000099541A002C00F3CD82039A05990098CD
:101BD0008142ACBF521812180392002B40F03182A0
:101BE00000230E930DF1680822E6BAF80C309B052D
:101BF0003FF554AF0AF1600009F03AFA4EE7069853
:101C000019F0100200F1040140F0808319F0400344
:101C100000F0E8831346069A069114880025D7E65B
:101C200019F0100F03F1040240F0638319F0400F24
:101C3000069B00F05E831C88069200250123C7E600
:101C4000FEF75CFBC2E5002940F00E8419F0200F7E
:101C5000069B00F08380073323F007031946F1E861
:101C60000223069114461D46002A73F10003C0F2B8
:101C7000E882029B013300F014829DF82B30079319
:101C800054EA050329F0800940F00E82029B002BE4
:101C900040F00F82CDF804900493B6E6002940F09E
:101CA000EC83C94A089219F0200F00F0C280069A0E
:101CB000073222F00702F2E80245069219F0010FFE
:101CC0000BD054EA050208D030228DF82D3049F0AF
:101CD00002098DF82C2002237AE6022378E6069C7E
:101CE00054F8046B4FF000038DF82B30002E00F0F9
:101CF0001E83029A1346013300F0668300213046AA
:101D0000FEF74EFF002800F09B83831B04939DF891
:101D10002B30079300230694CDF80490029375E6C8
:101D20009BF8003049F02009A6E5069B53F8044BC8
:101D3000069347F63002A44B0893ADF82C2049F0E7
:101D400002090025022343E6002940F09B8349F065
:101D5000100919F0200F069B7FF47DAF19F0100FCA
:101D600003F1040140F0BB8219F0400F069B00F024
:101D7000B682B3F900400691E51722462B4673E779
:101D80009BF8003049F0800976E55C4614F8013B89
:101D90002A2B00F08083A3F13002092AA34698BFC2
:101DA000002400F257831BF8013B04EB840402EB90
:101DB0004404A3F13002092AF5D902945EE59BF8A8
:101DC000003049F0040957E59BF8003001212B2031
:101DD00052E5069A9BF8003052F8044B0594002C0B
:101DE000C0F2A182069247E59BF8003049F0010954
:101DF00042E59BF8003000287FF43EAD0121202011
:101E00003AE5069B012153F8042B00914FF00000A6
:101E10008DF82B008DF840200693049110AE5FE6FC
:101E2000002940F01B83694A089219F0200F7FF4C3
:101E30003EAF069919F0100F01F1040240F05582EF
:101E400019F0400F069900F050820C880692002588
:101E500034E7002940F00583069A19F0200F52F864
:101E6000043B069240F04B8219F0100F40F076824E
:101E700019F0400F00F07282039A1A80D8E49BF8A0
:101E800000306C2B03BF9BF8013049F020090BF1A7
:101E9000010B49F01009EFE49BF8003049F04009CC
:101EA000EAE4DDF80490012B00F0FE80022B1AAE6C
:101EB00014D10898230904F00F0143EA05732A0995
:101EC0001C461546435C06F8013D54EA0503F1D172
:101ED0001AAB9B1BCDF80490049397E5E20842EA05
:101EE0004572E90804F007030D461446303354EAFE
:101EF0000501324606F8013DF0D119F0010FE7D097
:101F0000302BE5D03023023A06F8013C1AAB9B1A7D
:101F1000CDF804900493164678E5059B009C1D1BA4
:101F2000002D7FF72DAE102D294C40F3B1824FF0DC
:101F30001009634606E0901C08F108080A46103DA7
:101F4000102D1ADD511C10330729C8E900490F93E1
:101F50000E91F0DD0DAA51463846002B7AD0FFF7DE
:101F6000DDFB00287FF495ADDDE90E23103D102D3B
:101F700002F101000DF16808E4DC9C4608F1080359
:101F8000AC440728C8E90045CDF83CC00E9040F3AA
:101F9000A081BCF1000F00F04C820DAA51463846DA
:101FA000FFF7BCFB00287FF474ADDDE90E2C1CA804
:101FB000511C0DF16808E3E5102D054C40F3188223
:101FC0004FF0100963460CE0EC820208D882020848
:101FD000D8720208911C08F108080246103D102D25
:101FE00019DD501C10330728C8E900490F930E90E3
:101FF000F0DD0DAA51463846F3B1FFF78FFB0028FC
:102000007FF447ADDDE90E23103D102D02F10101F3
:102010000DF16808E5DC9C4608F10803AC4407298B
:10202000C8E90045CDF83CC00E9100F3E5800131D0
:1020300003F108009846A9E501211A460DF1680848
:10204000CCE70DAA51463846FFF768FB00283FF45D
:10205000C7AD1EE501201A460DF168086FE7BCF117
:10206000000F00F0E0800DAA514638460993FFF7B3
:1020700055FB00287FF40DADDDE90E2C099B511CAA
:102080001CA80DF168085AE502230BAACDE91A2312
:102090009C461CA8012180460A46511C08F10800F4
:1020A0006AE59DF82B300793002D08BF0A2C80F0BD
:1020B0005981303401238DF86740CDF804900493A2
:1020C0000DF16706A2E4102CBD4D40F3D9814146C5
:1020D0004FF01009B0461E46634607E002F1020EBB
:1020E00008310246103C102C18DD501C1033072814
:1020F000C1E900590F930E90F0DD0DAA5146384604
:102100000BB3FFF70BFB00287FF4C3ACDDE90E2314
:10211000103C102C02F1010E1AA9E6DC9C46334655
:1021200046468846A444BEF1070FC8E90054CDF8DE
:102130003CC0CDF838E000F3938008F108080EF1B8
:1021400001017246E6E41A464FF0010E1AA9C9E7EA
:10215000019A0E93500746D5059A0099541A002CFF
:1021600041DD1AA8102C0E99954D40F38E81102652
:1021700006E001F1020C08301146103C102C18DD6D
:102180004A1C1033072AC0E900560F930E92F0DD67
:102190000DAA514638460BB3FFF7C0FA00287FF46A
:1021A00078ACDDE90E13103C102C01F1010C1AA8DB
:1021B000E6DC2344BCF1070FC0E900540F93CDF8CF
:1021C00038C07FF702AD73B10DAA51463846FFF70C
:1021D000A5FA00287FF45DAC0F9BF6E44FF0010CEC
:1021E00019461AA8C9E7039B059A00998A42ACBF11
:1021F0009B185B180393F3E4BCF1000F00F0D1804F
:102200000DAA51463846FFF789FA00287FF441AC01
:10221000DDE90E1C1CA801310DF16808B6E40E9230
:102220000DF168081EE4002B75D111461CA862460A
:102230000DF16808A0E41CA8012162460DF16808B0
:102240009AE42D2364428DF82B30079365EB450506
:102250000123FFF7C3BB029B04931AAEFFF7D6BB63
:10226000BCF1000F6DD00DAA514638460993FFF717
:1022700055FA00287FF40DACDDE90E2C099B511CAA
:102280000DF1680846E4DAF87830DB0704D4BAF8D0
:102290000C309F0540F1EC800C980CA908F010FF61
:1022A0004FF0FF33039303982BB0BDEC028BBDE8D6
:1022B000F08F0AF1600008F0A1FEBAF90C108AB2A2
:1022C000FFF792BA30238DF867300DF16706FFF7FC
:1022D0009DBB411C0246984603F1080050E41C686F
:1022E0000691E51722462B46BEE40C6806920025AF
:1022F000E4E41C68069201230025FFF769BB039AFA
:102300001046D117C3E90001FFF792BA046806919D
:102310000025FFF75DBB02230BA9CDE91A139C46EC
:102320000DF17008B9E66442CDE9054249E5029B2A
:10233000244E0694062B28BF062304930093FFF730
:10234000CFBB9DF82B20002A54D1002B7FF49CAEEC
:1023500062461CA801210DF1680811E4039A1A6075
:10236000FFF766BA1AAE204629460A22002301F07A
:10237000B5F9303206F8012D00230A2220462946FD
:1023800001F0ACF92B462246002B08BF0A2A04466E
:102390000D46E8D21AAB9B1BCDF804900493FFF7CF
:1023A00035BB049B1B9301220F931A960E921CA817
:1023B00002E4012BDDF804907FF478AD79E600BFEC
:1023C000C8720208008302083046FFF739F99DF809
:1023D0002B30079300230694CDF8049004900293C9
:1023E000FFF714BB069A069114680025FFF7F0BAB0
:1023F000034613E601220DF12B001A9094461B921E
:1024000011461CA8FFF797BB8DF82B00FFF75CBBAC
:1024100018EE100A0DAA5146FFF780F900283FF484
:1024200036ABFFF736BB0AF1600008F021FEFFF77C
:10243000AFBA1CA8012162460DF16808FFF7A0BBE6
:102440009DF82B300793029B0493CDE901900694ED
:10245000FFF7DCBA00220292FFF710BA8DF82B00CA
:10246000E1E48DF82B00F7E48DF82B00FFF7EEBBCD
:102470000AF1600008F0FCFD0EE78DF82B0010E477
:1024800086464FE68DF82B0061E401F1010C90E6E1
:102490000346084674E5069A9BF8013052F8045B3F
:1024A0000692A34645EAE5740294FFF7E5B900BF3A
:1024B00030B583B00D460446019205F0C5FB019B83
:1024C0002A46214603B0BDE83040FFF76FB900BF90
:1024D000F0B50C46E1B0A56F89891E95256AA66AFC
:1024E000089521F0020120ADE789ADF80C100A969D
:1024F00000954FF48076049569460025CDE9056581
:10250000CDE91855CDE91A550296ADF80E7006467C
:10251000FFF74CF9051E07DB3046694600F0B8F9B5
:10252000002818BF4FF0FF35BDF80C305B0603D50F
:10253000A38943F04003A38118A808F059FD284659
:1025400061B0F0BD00B583B00091019005F07CFB57
:10255000DDE90032816803B05DF804EBFFF726B9CE
:1025600013460A468168FFF721B900BF38B5054612
:102570000C4605F069FB10B18369002B3CD0B4F91F
:102580000C3018079AB20CD52169A9B112F00100DC
:1025900022D0606900254042A061A56011B30020EF
:1025A00038BDD1063FD5520729D4216943F008032D
:1025B000A3819AB20029E9D102F42070B0F5007F1E
:1025C000E4D02846214600F0A1FDB4F90C30216981
:1025D0009AB212F00100DCD1950758BF6069A06083
:1025E0000029DCD1120658BF0846D9D543F0400374
:1025F000A3814FF0FF3038BDFDF780FEBFE7616B70
:1026000051B104F14402914204D0284600F08EFA00
:10261000B4F90C30002262632169216000226260FB
:1026200023F02403C2E743F0400309222A604FF05D
:10263000FF30A38138BD00BFF0B50C4683B0002940
:102640005AD0054610B18369002B59D001A9012049
:1026500008F036FDA36FDE073BD5B4F90C30002B34
:1026600046D004F160072146284600F069F8236B44
:10267000064633B1216A284698470028B8BF4FF074
:10268000FF36A3891A0646D4616B41B104F14403B5
:10269000994202D0284600F049FA00236363A16CF6
:1026A00021B1284600F042FA0023A364FDF7C4FEDE
:1026B000A36F0022DB07A28132D5384608F098FCD0
:1026C000FDF7C0FE019801A908F0FAFC304603B0FE
:1026D000F0BDA389980504F16007C4D4384608F01A
:1026E0008DFCB4F90C30002BBDD1A36FD9070AD5EE
:1026F000019801A908F0E4FC0026304603B0F0BDC3
:10270000FDF7FCFDA2E7384608F0B2FC019801A9EC
:1027100008F0D6FCF0E72169284600F007FAB3E795
:10272000384608F0A5FCC8E700B583B0019005F075
:102730008BFA019903B05DF804EBFFF77DBF00BF92
:10274000B1F90C202DE9F0410D461107804648D41F
:102750006B6842F40062002BAA815EDDEC6A002CFB
:1027600058D00023D8F80060296AC8F8003093B226
:1027700012F4805255D101234046A047431C69D032
:10278000AB89EC6A296A5F0705D56A686B6B801AAA
:102790000BB12B6CC01A024600234046A047441CD4
:1027A00049D1D8F80020B5F90C30002A5FD01D2A95
:1027B00001D0162A67D12A690021C5E9002123F436
:1027C0000063AB81696BC8F8006019B305F144037D
:1027D000994202D0404600F0A9F900206863BDE8A4
:1027E000F0812F69B7B193B22E682F6099070CBFA3
:1027F0006B690023F61BAB600AE0AC6A296A3346BA
:102800003A464046A047041EA6EB040627440ADDCC
:10281000002EF2DC0020BDE8F0812B6C002B9DDC4B
:10282000F8E7A86DAFE7AB8943F04003AB814FF009
:10283000FF30BDE8F081B5F90C302A692A6023F435
:10284000006300226A60DA04AB81BBD5C117C5E919
:102850001601B7E7D8F80030002B91D01D2B0FD010
:10286000162B0DD0AB8943F04003AB81D3E723F4A3
:1028700000632969AB81DB04C5E90012A2D5E5E755
:10288000C8F80060C6E743F04003AB81C3E700BF70
:1028900030B50B6983B03BB10C46054608B183697E
:1028A00013B3B4F90C301BB90025284603B030BD72
:1028B00001A9012008F004FCA36FD80702D4A38962
:1028C000990518D528462146FFF73AFFA36FDA0786
:1028D000054602D4A3899B0512D5019801A908F0E9
:1028E000EFFB284603B030BDFDF708FDB4F90C300E
:1028F000002BD9D0DCE704F1600008F07FFBE1E7B2
:1029000004F1600008F0B4FBE7E700BF40B110B588
:10291000044605F099F92146BDE81040FFF7B8BF1D
:10292000024B03491868FDF703BE00BFC4720208DA
:10293000912800082DE9F04782B080468946144668
:1029400000F098FB012803D109F1FF33FE2B36D9A3
:102950004A4604F1700301A9404600F067FE421C9C
:10296000064632D030B39DF804C000250DF1040AAC
:1029700009E023685A1C226083F800C00135B54283
:1029800018D215F80AC0A368013B002BA360F0DA47
:10299000A769BB4261462246404602DBBCF10A0FF2
:1029A000E7D100F0DDFD431CE8D10646304602B019
:1029B000BDE8F0874E46304602B0BDE8F0875FFACA
:1029C00089FC06468DF804C0CFE7A389304643F062
:1029D0004003A38102B0BDE8F08700BF70B5144684
:1029E00082B005460E46012001A908F069FBA36FDD
:1029F00013F0010FB4F90C309AB201D1980520D52B
:102A0000910406D4A26F43F4005342F40052A38110
:102A1000A267284622463146FFF78CFFA36FDA07EC
:102A2000054602D4A3899B0506D5019801A908F0A3
:102A300047FB284602B070BD04F1600008F018FBA7
:102A4000F3E704F1600008F0D9FAB4F90C309AB257
:102A5000D6E700BF30B583B00546019105F0F4F824
:102A6000019A044608B1836933B12946204603B070
:102A7000BDE83040FFF7B2BFFDF740FC019A2946A0
:102A8000204603B0BDE83040FFF7A8BFF8B5244F9B
:102A90000C46064605F0D4F8BB685D68C4F57B714A
:102AA000033125F003054B1923F47F7323F003034F
:102AB000A3F58064B4F5806F07DB0021304605F094
:102AC000A5F8BB682B44984204D0304605F0BAF80C
:102AD0000020F8BD6142304605F098F801300DD075
:102AE000104AB96813682D1B45F0010530461B1BC1
:102AF0004D60136005F0A6F80120F8BD00213046B6
:102B000005F084F8BA68831A0F2BDEDD064C054900
:102B1000246843F00103001B53600860D5E700BF41
:102B2000880200102008001090060010002963D0D1
:102B3000F8B50C46064605F083F854F8045C7D4968
:102B400025F00100A4F1080C0CEB00038F685A6813
:102B50009F4222F0030200F08E80ED075A6003EBE3
:102B6000020736D454F808EC7C68ACEB0E0C01F18B
:102B70000807DCF80850BD42704404F0010468D036
:102B8000DCF80CE0C5F80CE0CEF80850002C00F0A2
:102B9000998040F00102CCF804201860B0F5007F65
:102BA00033D2C3084C6801334209012090402043CE
:102BB00001EBC30251F833404860083ACCE90242C5
:102BC00041F833C0C4F80CC03046BDE8F84005F009
:102BD00039B87D68ED0710D4104401F108079A68F0
:102BE000BA4240F0010475D0DB68D3609A60CCF83B
:102BF00004404CF80000D1E7704740F00102B0F506
:102C0000007F44F8042C1860CBD3B0F5206F4FEA56
:102C100050234CD2830903F13905ED0003F138024A
:102C20004B594C19083C9C425DD05A6822F0030273
:102C3000824202D99B689C42F7D1DC68CCE902341D
:102C40003046C4F808C0C3F80CC0BDE8F84004F032
:102C5000F9BF002C68D1D3E90231024442F00100EF
:102C6000D9608B60CCF8040030464CF80220BDE8F7
:102C7000F84004F0E7BFEF07024408D454F8083CDA
:102C8000ACEB030C1A44DCE90203C36098602A4BE6
:102C90001B6842F001009342CCF80400C1F808C060
:102CA00092D8264B30461968FFF7F0FE8CE7142BBC
:102CB0000AD9542B1FD8030B03F16F05ED0003F164
:102CC0006E02ADE710448AE703F15C05ED0003F105
:102CD0005B02A5E7C1E904CCCCE90277CCF804405B
:102CE0004CF8000070E748689210012505FA02F2DE
:102CF00002434A60A2E7B3F5AA7F06D8C30B03F1EB
:102D00007805ED0003F177028AE740F254529342CE
:102D100006D8830C03F17D05ED0003F17C027FE70B
:102D20004FF47E757E227BE740F00102CCF8042050
:102D3000186049E788020010940600101C08001073
:102D40009368002B00F0FB802DE9F04F9046B1F91D
:102D50000C200C46110783B0824693B231D522690C
:102D60007AB313F00207D8F8005039D00027D4F80E
:102D700028B0216ADFF8B8923E464E4533463A46BF
:102D800028BF4B465046C6B1D847002840F3CD80F7
:102D9000D8F808301B1A0744361AC8F80830002B38
:102DA00000F0B2804E453346D4F828B0216A28BFDF
:102DB0004B463A465046002EE6D1D5E90076083516
:102DC000DBE721465046FFF7D1FB002840F02D817C
:102DD000B4F90C20D8F8005093B213F00207C5D113
:102DE00013F001095DD1A76820684E46002E54D02B
:102DF0009A0540F1A680B742BB4600F2E38013F487
:102E0000906F2FD0D4E9041707EB4707A0EB010B15
:102E100007EBD777701C7F105844B8423A4684BFFE
:102E200007463A465B0540F1E48011465046FDF7FF
:102E3000FFFB002800F0F3805A4621690090FDF75F
:102E40002FFFA289009B22F4906242F08002A281AF
:102E5000A7EB0B0203EB0B00676123612060A2600C
:102E60003746B34649465A46FDF7B4FFA168236882
:102E7000C91B5B443746A16023600026D8F80830A0
:102E8000DB1BB944C8F80830002B3DD0B4F90C3036
:102E9000A76820689BB2002EAAD1D5E90096083514
:102EA000A4E7A94638463E463D460097002E76D018
:102EB00000287CD0009A2068D4E90413B24228BFCD
:102EC0003246884204D9A16803EB010B5A451FDC46
:102ED000934200F38180216AA76A2A465046B84788
:102EE000B0F1000B21DD009BB3EB0B0300936CD022
:102EF0000120D8F80830A3EB0B035D44A6EB0B06CA
:102F0000C8F80830002BD1D1002003B0BDE8F08F05
:102F100029465A46FDF75EFF23685B44236021463D
:102F20005046FFF7B5FC0028DDD0B4F90C3043F073
:102F300040034FF0FF30A38103B0BDE8F08F0020C5
:102F400070472369834214D36169B14211D86FF08D
:102F50000043B34228BF3346A76A93FBF1F34A46C6
:102F600001FB03F35046216AB847071EDDDDF61B5F
:102F700084E7B74228BF37463A464946FDF72AFF5D
:102F8000A3682268DB1B3A44A3602260002BEED1C9
:102F900021465046FFF77CFC0028E8D0C5E709F140
:102FA000080353E9025699460833002EF9D03246F9
:102FB0000A212846FDF7F4FD70B30130431B00934E
:102FC0001A4678E73746B3464CE721465046FFF7A6
:102FD0005FFC00288DD0A8E729460192FDF7FAFE94
:102FE000019AA1682368891A1344A160236093465B
:102FF00079E7504600F0F6F8034600287FF428AF42
:1030000021695046FFF792FDB4F90C300C2223F0F1
:103010008003CAF800208AE7721C00924BE70C2359
:10302000CAF80030B4F90C3081E74FF0FF306CE79C
:1030300000FFFF7F42B110B50B4910461446FEF762
:1030400033F918B9094810BD0848704707492046A8
:10305000FEF72AF90028F5D005492046FEF724F9A5
:103060000028EFD0002010BD0C830208088302085E
:10307000887902080120704710B582B0044601919A
:1030800004F0E2FD019A214602B0BDE81040FFF7CE
:10309000D1BF00BF70B50C46B1F90E10002998B031
:1030A00016461D461BDB6A4604F04CFF002816DB63
:1030B000029B139A03F47043A3F50051B1FA81F116
:1030C0004909002A29601ADDB3F5004F0CBF4FF4FF
:1030D00080604FF400603260226518B070BDA18935
:1030E000002311F080002B6004D04022184632608B
:1030F00018B070BD4FF48073336018B070BD4FF4DA
:1031000080734FF40060336018B070BD70B58B8968
:103110009D0782B00C4607D501F147030122C1E9A2
:1031200004320B6002B070BD01AB6A460646FFF781
:10313000B1FF009905463046FDF77AFA80B1B4F93F
:103140000C20174B33620199206042F08003009AF3
:10315000A381C4E9040299B92B43A38102B070BDD5
:10316000B4F90C309A05DDD423F0030304F14702CF
:1031700043F002030121C4E90421A3812260D1E7C5
:10318000B4F90E10304604F029FF10B9B4F90C3030
:10319000E2E7A28922F0030242F0010213B2DBE768
:1031A0004502000810B4034CD4F8E440A4465DF88E
:1031B000044B6047E872020882B049B15AB16BB162
:1031C00013780B601278101E18BF012002B07047F0
:1031D00001A9002AF3D1104602B070476FF0010038
:1031E000F4E700BF2DE9F84F1646002900F0C18032
:1031F00006F10B050C46074604F022FD162D62D899
:1032000010252A46AE4263D854F804EC2EF0030889
:10321000A4F10809904509EB080A80F28580C94BA2
:10322000DAF804009968514500F0BB8020F00103F2
:1032300053445B68DB0700F1908020F0030008EB4B
:103240000003934280F219811EF0010F11D154F84E
:10325000083CA9EB030BDBF8041021F00301084440
:1032600000EB0803934280F21C8108EB01039342B8
:1032700034DA31463846FDF7DBF90646E8B154F852
:10328000043C23F001034B44A0F10802934200F0F8
:10329000FC80A8F10402242A00F2FF80132A21688E
:1032A00000F2CD8003462246196051685960926849
:1032B0009A6021463846FFF739FC384604F0C2FCD4
:1032C0003046BDE8F88F25F00705002D2A4699DA2B
:1032D0000C233B6000263046BDE8F88F5E46DBF8E5
:1032E0000C1056F8080FA8F10402242AC1600BEB59
:1032F000030A886000F2DD80132A216840F2D7803B
:10330000CBF808106168CBF80C101B2AA16800F2FA
:10331000E4800BF110020834116061685160A1680B
:1033200091609846D9463446D9F80430A8EB050296
:103330000F2A03F0010321D848EA0303C9F8043037
:10334000DAF8043043F00103CAF804303846264660
:1033500004F078FC3046BDE8F88F1EF0010F88D1EC
:1033600054F8083CA9EB030BDBF8041021F003012F
:103370007BE7BDE8F84F1146FDF75AB909EB0501A7
:103380002B4342F00102C9F804304A60DAF80430F5
:1033900043F001030831CAF804303846FFF7C6FB92
:1033A000D4E720F0030008EB000105F1100C6145A3
:1033B00050DA1EF0010F7FF45CAF54F8081CA9EB43
:1033C000010BDBF8041021F00301084400EB080AAC
:1033D000D4453FF74AAF5E46DBF80C1056F8080FAD
:1033E000A8F10402242AC160886000F29980132A9F
:1033F000216840F29380CBF808106168CBF80C107C
:103400001B2AA16800F292800BF1100208341160AF
:1034100061685160A16891600BEB0501AAEB0502A0
:1034200042F0010299604A60DBF8043003F00103C6
:103430001D433846CBF8045004F004FC4BE7016010
:10344000636843601B2A3CD8A16804F1080200F1BC
:10345000080329E709EB05004A1B42F001029860C6
:10346000426054F8043C03F001031D43384644F81D
:10347000045C04F0E7FB26462DE7DAE902129846E1
:10348000CA6009EB030A91604EE750F8043C23F050
:103490000303984409EB080A46E72146FDF79AFC26
:1034A00007E7DAE902125E46CA60916017E7324622
:1034B00032E7214630469846D946FDF78BFC344624
:1034C00032E7A3688360E368C360242A11D02169CE
:1034D00004F1100200F11003E6E6CBF81010E168E9
:1034E000CBF81410242A0ED021690BF118021034E5
:1034F00012E72369036163694361A16904F118025A
:1035000000F11803D0E62269CBF818206269CBF8E5
:103510001C20A1690BF120021834FDE6324676E743
:1035200021463046FDF756FC064B75E7CBF81010E8
:10353000E168CBF81410242A06D021690BF1180297
:10354000103464E7880200102269CBF81820626901
:10355000CBF81C20A1690BF12002183457E700BFFB
:10356000F8B50D461446064610B18369002B43D0CA
:10357000B4F90C20A369A360170790B21BD5236987
:10358000CBB1EDB281042F4622D522686169D31AEE
:10359000994229DD0133A168501C0139A1602060E6
:1035A000157062699A422AD0A389DB0701D50A2DDA
:1035B00025D03846F8BD21463046FEF7D7FF20BB60
:1035C000B4F90C20236990B2EDB281042F46DCD40B
:1035D000A16F42F4005221F40051A2812268A16738
:1035E0006169D31A9942D5DC21463046FFF750F97C
:1035F00058B922680123CEE7FCF780FEB8E72146E0
:103600003046FFF745F90028D3D04FF0FF37D0E719
:1036100010B582B00446019104F016FB019A2146D0
:1036200002B0BDE81040FFF79BBF00BFF0B50B4CE8
:1036300085B0D4F8E06005461F4621B1B047431C71
:1036400006D005B0F0BD0A4601A9B047431CF8D129
:1036500000228A233A602B6005B0F0BDE8720208B0
:103660002DE9F04184B004460E46154604F0ECFA0C
:103670000D4B8046D3F8E07044B12B4632462146CC
:10368000B847431C08D004B0BDE8F0812B46224661
:1036900001A9B847431CF6D100228A232A60C8F842
:1036A000003004B0BDE8F081E872020810B4034CA9
:1036B000D4F8E040A4465DF8044B6047E872020885
:1036C00049B1FF2A02D80A70012070478A2303609B
:1036D0004FF0FF3070470846704700BF53B94AB9F2
:1036E000002908BF00281CBF4FF0FF314FF0FF300A
:1036F00001F0C2B8ADF1080C6DE904CE00F006F897
:10370000DDF804E0DDE9022304B070472DE9F0475D
:10371000089D0E4604468C46002B40F081808A426C
:10372000174645D9B2FA82F24AB1C2F1200106FA2F
:1037300002F320FA01F1974041EA030C94404FEA6A
:10374000174E230CBCFBFEF6B9B20EFB16CC43EAB7
:103750000C4306FB01F0984209D9FB1806F1FF3C27
:1037600080F01581984240F21281023E3B441B1AC0
:10377000A4B2B3FBFEF00EFB103344EA034400FB9B
:1037800001F1A14209D93C1900F1FF3380F0018118
:10379000A14240F2FE8002383C44641A40EA0640EE
:1037A00000211DB1D4400023C5E90043BDE8F087E6
:1037B00002B9FFDEB2FA82F2002A4FD1CB1B4FEAE8
:1037C000174E1FFA87F80121B3FBFEFC260C0EFBF7
:1037D0001C3346EA034608FB0CF3B34207D9BE1973
:1037E0000CF1FF3002D2B34200F2EB808446F61AAD
:1037F000A3B2B6FBFEF00EFB106643EA064408FBDC
:1038000000F8A04507D93C1900F1FF3302D2A045CA
:1038100000F2D2801846A4EB080440EA0C40C0E74E
:103820008B4208D9002D00F0AF800021C5E90006C9
:103830000846BDE8F087B3FA83F1002949D1B342C5
:1038400002D3824200F2BB80841A66EB030301209C
:103850009C46002DAAD0C5E9004CA7E7C2F1200381
:103860009740D8409140DE404FEA174E08434FEA58
:10387000104CB6FBFEF11FFA87F80EFB11664CEAFE
:10388000064601FB08F3B34204FA02F409D9BE1953
:1038900001F1FF3C80F08E80B34240F28B80023910
:1038A0003E44F31A86B2B3FBFEF00EFB103346EA39
:1038B000034600FB08F3B34207D9BE1900F1FF3CF1
:1038C00074D2B34272D902383E44F31A40EA01413D
:1038D0007AE7C1F1200703FA01F422FA07F31C4347
:1038E00020FA07F906FA01F34FEA144CFE4049EAC0
:1038F00003094FEA1943B6FBFCFE1FFA84F80CFBE0
:103900001E6643EA06460EFB08FAB24502FA01F2C9
:1039100000FA01F308D9A6190EF1FF3048D2B245DA
:1039200046D9AEF1020E2644A6EB0A061FFA89F923
:10393000B6FBFCF00CFB106649EA064600FB08F8F3
:10394000B04507D9A61900F1FF3C2DD2B0452BD9BF
:103950000238264440EA0E40A6EB0806A0FB028986
:103960004E45C446CE4618D315D075B3B3EB0C0202
:1039700066EB0E0606FA07F722FA01F3CE401F4364
:10398000C5E90076002111E7294628460EE766467C
:10399000EDE6184601E74345E7D2B8EB020C69EBC8
:1039A00004040138A646E0E76046D3E760468CE7AA
:1039B0008646B9E7614674E702383C442BE708467F
:1039C00047E7ACF1020C3E4411E72946EEE600BFA2
:1039D00003685A004CBF43F0004323F000431844EF
:1039E000704700BF012807D0022807D0044B0028E9
:1039F0000CBF1846002070470248704702487047C5
:103A00000141000805410008094100080368DA0780
:103A100010B5044606D49B0700F1480009D500F014
:103A2000C5FC2368590709D51A070ED5DB0613D53F
:103A300010BD00F0B3FC23685907F5D404F1D000A1
:103A400000F0BCFC23681A07F0D404F5A87000F05D
:103A5000BDFC2368DB06EBD404F5E870BDE810403C
:103A600000F0F8BC092070472DE9F04728B300F1B9
:103A7000FF39144EC846002707EB080404EBD47442
:103A8000641006EBC40A5046FFF7A2FF0546E000AB
:103A90000830A145304409D0FFF79AFF8D4200F16C
:103AA000FF3005D888420AD2671CE5E78D4206D967
:103AB000A74202D004F1FF38DEE74FF0000A50467B
:103AC000BDE8F087208302081C4A1D4B9B1A10B5E5
:103AD00002390446D810FFF7C7FF014650B3FFF77D
:103AE00077FF4B68A064012B20D0002B01F104006C
:103AF0000CDBFFF76DFF0023C4E913030368002B01
:103B00000ADBFFF765FF2061002010BD0123C4E937
:103B100013030368002BF4DAC3F30360FFF762FFBB
:103B20000028206114BF0020092010BD002323615C
:103B3000052010BD2061092010BD00BF20830208B0
:103B4000388E02080346006800B11844704700BF71
:103B5000704700BF70B504460E46316C2046FFF733
:103B6000B3FF054688B9336C636132462369214649
:103B7000012098470828F0D0072806D12846316C44
:103B8000FFF7E6FF301D00F0FDFBFCF7FDFA00BF7C
:103B90002DE9F0470D1D064614460FCDADF5727D9B
:103BA0000DF10C0CACE80F000FCDACE80F000FCD01
:103BB000ACE80F0095E80F0002ADF768D6F8188062
:103BC0008CE80F0000232B6021E02B6C73614FF415
:103BD000F07229467AA8FDF763F833697AAA31466C
:103BE00050469847889BCDE9005821466B64814632
:103BF000334632460120B8470446E8B94FF4F07224
:103C00007AA92846FDF74CF8B9F1080F1BD1296CA9
:103C10003046FFF759FF09345FFA84FA81460028DD
:103C2000D3D0AB6B4AF01001CDE9005832466B643B
:103C300001203346B84708B14FF0090948460DF551
:103C4000727DBDE8F087B9F1070FF5D12046296CE8
:103C5000FFF77EFF03A800F095FB00BF406C7047A4
:103C6000F0B5CB6B0B640E1D0F4605460FCEF9B0B9
:103C700001AC0FC40FCE0FC40FCE0FC496E80F00D7
:103C80004FF0FF3684E80F00009606E02B696A4685
:103C9000294698470828044608D110992846FFF776
:103CA00013FF0028F2D0092079B0F0BD6846FFF775
:103CB000ADFE062CF7D139462846FFF74BFF00BF73
:103CC00030B4DD6BC160826119461D64002230BCD6
:103CD0005EE700BF70B5C66843690B64AEB903699F
:103CE0000A4604460D46014602209847072805D09B
:103CF00008280FD129462046FFF72CFF3046296CB3
:103D0000FFF726FF281D00F03DFB0122FFF740FFD3
:103D1000FCF73AFAFCF738FAC2681AB1CA6B0A64BF
:103D2000002235E79CE700BF704700BF836801466B
:103D30000BB1012018477047012912D009D873B977
:103D40000F2A0CD800EB820218465368009A1360C1
:103D500070470339012994BF0120022070470220D7
:103D600070470846704700BF10B584B0002303AC0D
:103D70000A4600941946FFF7DFFF039804B010BD10
:103D8000012912D009D873B90F2A0CD800EB820090
:103D9000009A12684260184670470339012994BF9F
:103DA000012002207047022070470846704700BF7C
:103DB00010B584B0002303AC039200940A46194660
:103DC000FFF7DEFF04B010BDF0B5D36B1364151D13
:103DD0008C4606460FCDADF50F7D17AC0FC40FCD49
:103DE0000FC40FCD0FC495E80F004FF0FF3784E8E4
:103DF0000F006546169710E0FFF7DAFF294616A870
:103E0000B047034616AA6946082083B9049B984721
:103E1000052804460CD0092809D026996846FFF7E2
:103E200053FE03466A460C2116A8002BE4D0092451
:103E300016A8FFF7EBFD20460DF50F7DF0BD00BF86
:103E40002DE9F04FCC6C89B00D4654F8041B069454
:103E5000174600F003081E46002B79D00B0CDAB28F
:103E600009048DF81D30022304EB820405918DF8BE
:103E70001C302B6DB8F1020F08BFAC6B13F00103BF
:103E80000CD0384605A900F07FFB18B9082009B00E
:103E9000BDE8F08F092009B0BDE8F08FD4F800A08C
:103EA000BAF1000FEDD0019300F008030293022E47
:103EB0004AD0B4F800A0B4F802900434AA6C29F0F7
:103EC000010B0F2138469344FFF74EFF834539D845
:103ED0002AF001025A44824294BF002001204FEA96
:103EE000490303F002030AF0010A43EA0A03012B23
:103EF00049D0022B32D0002BCCD1B8F1000F02D028
:103F0000002840F0CC800434D4F800A0BAF1000FAF
:103F1000CDD105A9384600F037FB0028BAD1019B66
:103F2000002BB3D00F213846FFF71EFF0E210246AB
:103F30003846FFF73DFF3846704A0F21FFF738FF3C
:103F40000720A8E70020CAE7D4F804900834B5E7B2
:103F5000090203230591ADF81C308AE7236823F09A
:103F6000004BB8F1000F45D128B1029A002A5BD06E
:103F7000BBF1000F73D0002B00DA04340BF1010BFE
:103F800004EB8B04C0E7B8F1000F19D1B0B1D4E94C
:103F90000023991C4FEAD2723FF47CAF05F158011F
:103FA0000133049100F08F80201DFFF7CBFD04AB9F
:103FB000014628460DF022FD00285AD10834A3E717
:103FC0000D213846D5F82090FFF7CEFE8145F5D17A
:103FD000AB6A9C42F2D12046FFF7FAFC0F21024661
:103FE0003846FFF7E5FE38462A460021FFF7E0FE97
:103FF000072050E70D213846D5F82090FFF7B4FE92
:10400000814501D02368B6E7AB6A9C42FAD104210E
:1040100000236218C5E90AB3C5E90C1222689A4266
:1040200059DB01230193A9E705F15803CDF80C8072
:1040300004F1040AB04691461E460DE00496FFF7CF
:1040400081FD04AB0146002228460DF0D7FC09F1A2
:1040500001090AF1040AE8B9D9455046EED13846BB
:104060000D21FFF781FE049B2862C5E90934062073
:1040700011E781460D213846FFF776FEB9F1020FB0
:10408000286225D12B46049A43F82C2F6B62AC6230
:10409000062000E746462368DDF80C806BE72046E3
:1040A000FFF796FC04340246AC63284614460DF034
:1040B00003FD00283FF4EEAE384622460F21FFF7FD
:1040C00077FE0720E7E638460D21FFF74DFE286210
:1040D000049B6B62DBE70BF1010004EB8000FFF750
:1040E00077FC0F2102463846FFF762FE0023384670
:1040F0002A461946FFF75CFE0720CCE6D1340108BA
:1041000000239DE601239BE6022399E62DE9F04377
:104110000646C3B015461C46042900F2B980DFE804
:1041200001F09A53B7290300002C40F0B180102A07
:1041300000F2AE800368D80600F1F38020AF384665
:1041400000F092F9B06B0023012404FA03F22A4232
:10415000014604D051F8042B47F8232008460133C8
:10416000042BF2D1B063384600F074F9002043B05C
:10417000BDE8F083032C40F08B8094B204EB124333
:10418000102B4FEA124500F2838003681F0700F1ED
:10419000D08020AF384600F03BF907EBC501B56B86
:1041A00054B10B46E81A01EBC401E4001A5843F875
:1041B000042B8B42FAD125443846B56300F006F94A
:1041C000002043B0BDE8F083012C4FEA124895B2BD
:1041D0005AD0052C5CD108EB0509B9F1200F57D84E
:1041E000B8F10F0F77D9A946002D40F08880B36B46
:1041F0006DB320AF4FF0000907EBC807043F03EB96
:10420000C50553F8041B47F8041FAB42F9D1B9F1B7
:10421000000F0FD06F464146102938BF102107EB21
:10422000C101843903EBC90553F8040B41F8040FAD
:10423000AB42F9D1012C00F08480B8F10F0FB563C7
:1042400045D9B9F1000F02D0684600F0B7F8002058
:1042500043B0BDE8F083DCB9876B2346012094B2FC
:1042600006F1040C00FA03F22242394604D051F858
:10427000042B4CF823200F460133102BF2D115F4F8
:104280000050E4D1B76304E008EB0503102B03D919
:10429000022043B0BDE8F083B8F10F0FF8D83368BF
:1042A000DA0706D5304623F0030340F8483B00F018
:1042B00079F820AF384600F075F8B36B002D99D12E
:1042C0001D460435B563384600F068F8BFE720A8FE
:1042D00000F06CF8B5E7B9F1100F40D9A9F1100959
:1042E0003368D90708D523F00103304643F00203B1
:1042F00040F8483B00F05EF8B9F1000F32D0336867
:104300005A0720D4B8F10F0F25D96F463846C8F1A7
:10431000100500F057F8002DB36B7FF77CAF20AF8E
:104320006AE723F01003336006F5E87000F09CF8AC
:1043300004E723F00803036000F5A87000F068F8B4
:1043400027E720AFBDE7304623F0040340F8D03B19
:1043500000F038F8D6E720A800F02CF8D5E74FF0A9
:104360000009BDE7B8F10F0F3FF641AF20AF384667
:1043700000F020F8B36B002D7FF43CAF384600F01E
:1043800015F864E700F1340191E838009C46A64630
:104390004CF8045D90E8FF0FE54600BD90EC210B62
:1043A000704700BF80EC210B704700BF90EC200BE2
:1043B000704700BF80EC200B704700BFD0EC200B93
:1043C000704700BFC0EC200B704700BFF0EC02014B
:1043D000F0EC0211F0EC0221F0EC0231F0EC0241C1
:1043E000F0EC0251F0EC0261F0EC0271F0EC0281B1
:1043F000F0EC0291F0EC02A1F0EC02B1F0EC02C1A1
:10440000F0EC02D1F0EC02E1F0EC02F1704700BFF9
:10441000E0EC0201E0EC0211E0EC0221E0EC023100
:10442000E0EC0241E0EC0251E0EC0261E0EC0271F0
:10443000E0EC0281E0EC0291E0EC02A1E0EC02B1E0
:10444000E0EC02C1E0EC02D1E0EC02E1E0EC02F1D0
:10445000704700BFB0FC0181B0FC0191B0FC01A12C
:10446000B0FC01B1704700BFA0FC0181A0FC01912C
:10447000A0FC01A1A0FC01B1704700BFEC4600B553
:104480002DE900502DE9FF1F4FF000032DE90C002E
:1044900001A9FFF7E5FBDDF840E012B0704700BF6F
:1044A000EC4600B52DE900502DE9FF1F4FF0000349
:1044B0002DE90C0001A9FFF70DFCDDF840E012B07A
:1044C000704700BFEC4600B52DE900502DE9FF1FF5
:1044D0004FF000032DE90C0001A9FFF71DFCDDF8EA
:1044E00040E012B0704700BFEC4600B52DE9005027
:1044F0002DE9FF1F4FF000032DE90C0001ABFFF782
:10450000DFFBDDF840E012B0704700BFEC4600B5BD
:104510002DE900502DE9FF1F4FF000032DE90C009D
:1045200001AAFFF751FCDDF840E012B0704700BF70
:10453000027A7AB9437AA3B14268013B10B443725C
:1045400013680321141D01721A024460026010BC3A
:10455000180E70470368013A02721A020260180EC0
:104560007047B020704700BF00B585B003AA002394
:10457000009219460C22FFF7DFFB039805B05DF8A7
:1045800004FB00BFF0E700BF2DE9F043054685B00E
:104590000E464FF000083046FFF7CAFFB028044629
:1045A00000F0B280070620D500F0F003802B4DD03C
:1045B000902B36D0A02B60D0B02B74D0C02B00F045
:1045C0008B8000F0F803D02B0BD100F007020132F2
:1045D00042F40022052301212846FFF797FD002819
:1045E000D9D0092005B0BDE8F0830DF10C090023F6
:1045F00019468700CDF800900D222846FFF79CFB56
:10460000FFB2039BCDF80090043760064CBFDF1B60
:10461000FF18002319460D2228460397FFF7B0FB29
:10462000B9E700F00D030D2BDBD003AF002300F042
:104630000F02194600972846FFF77EFB00230097DC
:1046400019460D222846FFF79BFBA4E73046FFF7EB
:104650006FFF24022043B0F5004FC2D004010023B5
:10466000A2B219462846FFF751FD0028B9D114F42B
:10467000004F18BF4FF001088DE7C24302F0070357
:104680004FF47F621A41010702F47F624FF000038A
:1046900048BF42F4804219462846FFF737FD0028FC
:1046A0003FF479AF9DE7B12833D0B22800F08B807A
:1046B000B32839D000F0FC03B42B92D000F00702ED
:1046C0000132012342F4002219462846FFF71EFD5D
:1046D00000283FF460AF84E7C62842D0C7284CD0FA
:1046E00000F0F803C02B5BD0C82860D0C9287FF445
:1046F00078AF3046FFF71CFF020300F00F0002F412
:1047000070220130024365E7B8F1000F18D0002095
:1047100068E73046FFF70CFF024600283FF461AF20
:1047200010F0F003D0D05CE73046FFF701FF010343
:1047300000F00F0001F47021421C01230A43C3E77B
:1047400003AC43460E22414600942846FFF7F4FA94
:104750000094284643460F224146FFF711FB40468E
:1047600040E73046FFF7E4FE010300F00F0001F4DC
:104770007021421C03230A43A6E73046FFF7D8FE08
:10478000024600283FF42DAF10F0F0037FF429AF6C
:1047900004212846FFF7BAFC00283FF4FCAE20E7CE
:1047A00000F00F020132032342F420228CE730464E
:1047B000FFF7BEFE00F0F00200F00F0310320133ED
:1047C00043EA023206E700230DF10C090D221946D7
:1047D000CDF800902846FFF7AFFA3046FFF7A8FE65
:1047E00002064FF002070CD5039B00F07F00B84093
:1047F000034430460393FFF79BFE030607F10707C8
:10480000F2D4039BCDF8009000F07F0403F5017211
:10481000BC400023144419460D2228460394FFF798
:10482000AFFAB8E610B5C26C84B0536803248DF8B3
:104830000C401B0202F108040846D279019301A939
:1048400002948DF80D20FFF79FFE04B010BD00BF4D
:1048500008B5FFF797FE806C08BD00BF08B5FFF7ED
:1048600091FEC06CC379023300EB830008BD00BF2A
:104870000048704700020010704700BF30B50E4975
:104880000E4A0F4D85B00023CDE901120095039328
:104890006C4600F09DF96C46214600F06DFA20460A
:1048A000009500F093F9002005B030BD204600953A
:1048B00000F08CF90DF09CF8784A0108921F010075
:1048C0005C6A02080023C360704700BF704700BFE6
:1048D00010B572B6124B1C6894F80A34022B18D02B
:1048E00094F8081494F80A344A1CD2B2013301F542
:1048F0008071DBB24FF48070012A84F80A3484F8A6
:10490000082444F8210002D9002384F8083462B650
:1049100010BDD8B201F098F9E2E762B60DF068F880
:10492000A006001010B5102104460DF005F8204631
:1049300010BD00BFD30743D42DE9F0479146D0E91D
:104940000223A2EB030A4FEA4A0ACA45A8BFCA4695
:10495000BAF1000F05460F461BDD0AF1FF384FEA9A
:10496000580201F1040808EB82080C46591C6A68D9
:10497000E960D65C06F00F0000F084FB208030096F
:1049800000F080FB043424F8020C4445EB68EDD1C0
:10499000AA68934211DBD1450CDD0AF100410139CF
:1049A000BA1E07EB410102EB4909002321F8023F3F
:1049B0008945FBD10120BDE8F0870020BDE8F087E4
:1049C00001207047930747D12DE9F0479046D0E981
:1049D0000223D71ABF004745A8BF4746002F81468C
:1049E0000D4622DD7E1EB20801F1080606EBC20666
:1049F0000C46591CD9F80420C9F80C1012F803A071
:104A00000AF00F0000F03EFB83B2638023804FEA80
:104A10001A1000F037FB83B2E380A3800834B4425D
:104A2000D9F80C30E5D1D9F80820934211DBB8450C
:104A30000CDD07F10047AA1E013F05EB470502EB1D
:104A40004808002325F8023FA845FBD10120BDE816
:104A5000F0870020BDE8F0870120704710B50446BC
:104A6000806808B10CF066FF204610BD10B572B624
:104A7000104C206890F80A34022B05D090F80834C6
:104A800000EB432062B610BD00F0ACFC62B600F053
:104A90005FFC72B6206890F80A34022BF4D090F8CC
:104AA000083400EB432062B610BD62B60CF0A0FFE4
:104AB00072B6FAE7A006001038B5084D322401207E
:104AC00000F082FC2B695B0603D4013CF7D1204641
:104AD00038BD042005F0F4F8012038BD0004024080
:104AE000EFF309810C480068A0E8F24F5FEACE625C
:104AF00001D480EC108ABFF35F8F00F00FF80648F6
:104B00000068B0E8F24F5FEACE6201D490EC108A00
:104B100081F3098870470000EC06001070B5254D40
:104B2000254B2C684FF43462DA6094F80A34002B79
:104B300037D0214694F8093494F80A240133DBB2C3
:104B4000012B02F1FF3288BF0023D2B284F80A247D
:104B500084F8093491F80A34FBB191F80924174B11
:104B6000174C02F58070002651F820001E6001EB02
:104B7000422214499C60DA6058601960686800F04D
:104B800045FC686800F048FC04B200F0A9FD00F0A4
:104B900043FC00B2A04209DB70BD0B4B01221A702E
:104BA000ECE7022001F050F82968C3E7BDE8704047
:104BB00001F084BBA0060010006002408860024043
:104BC0000C3C0040512C020000020010704700BF56
:104BD00038B5124D297ABFF35B8F11F0010401D073
:104BE0000F4838BD05F1080003F0B6FA0028F7D0E9
:104BF000214605F10C0000F069FE05F1080003F004
:104C000011FB084A084905F10C000CF00DFE0448A0
:104C100038BD064803F010FB0CF0EAFEA0060010B9
:104C2000AC060010140200105D4A0008A80600102F
:104C3000F8B52B4D04460826402714F0800F4FF49A
:104C400000730ABF4FF400732B836B83032005F0BE
:104C500037F805202F8305F033F82B6964005806D8
:104C6000E4B201D4FFF728FF6F83032005F028F892
:104C7000013EE2D14FF400732B83032005F020F8AE
:104C80002F83032005F01CF82B6959060ED4FFF77B
:104C900013FF2B699A0504460BD4032005F010F886
:104CA0006F83032005F00CF82046F8BD2B699B05A7
:104CB0000BD5032005F004F8094B40225A8303204A
:104CC000002404F0FDFF2046F8BD032004F0F8FFA7
:104CD00001246F83032004F0F3FF2046F8BD00BFDA
:104CE000000402402DE9F041174C4FF400780646CD
:104CF00040270320A4F81A800D4604F0E1FF0320AA
:104D0000678304F0DDFF9420FFF792FF3046FFF742
:104D10008FFF2846FFF78CFF0320A4F81A8004F0C9
:104D2000CFFF2783032004F0CBFF23695B0601D468
:104D3000FFF7C2FE044B4FF40072BDE8F0411A8346
:104D4000032004F0BDBF00BF0004024000B56FF0B7
:104D500065018842B8BF084600EAE07083B04000B1
:104D6000C1B220200191FFF7BDFF0199212003B0BE
:104D70005DF804EBFFF7B6BF2DE9F04F824683B034
:104D80000D4600F061FA504601A900F0D3FE00F094
:104D90006FFA40F20C400DF08BFBDFF8E09200233D
:104DA000A0F8083480F80A34C9F8000072B6A74B9E
:104DB000A7481A6B42F400121A631A6C42F40042BC
:104DC0001A644FF40071402301830C2203830921EC
:104DD00004F082FF9E480C22062104F07DFF9D48CE
:104DE0001022072104F078FF9A480622072104F0D8
:104DF00099FF984810220A2104F06EFF9548062278
:104E00000A2104F08FFF92481022052104F064FF6C
:104E10008F480622052104F085FF8F4810220421C7
:104E200004F05AFF8C480622042104F07BFF8B48D3
:104E30000822042104F050FF844A894BC2F88430D0
:104E4000136843F08063136062B613681B01FCD5DE
:104E5000824B10225A83052004F032FF7F4B102230
:104E60001A83052004F02CFF99210020FFF73AFF58
:104E700080214720FFF736FFBB213220FFF732FFAA
:104E80003B213220FFF72EFF00210846FFF72AFFC3
:104E900020210520FFF726FFAF210420FFF722FF86
:104EA00004210620FFF71EFF6FF01300FFF74EFFEF
:104EB0006C4B6D4A0221596040F2062119624FF491
:104EC0006061D96120214FF4803382F810131360A0
:104ED000FFF7CCFD4FF400720021FCF729F8FFF733
:104EE000F7FC2B68614A9B68934240F09080002356
:104EF000EB6000F0F5FB5E4C5E4FDFF884B1C9F863
:104F000004004FF0010820E093F8092402F58070B6
:104F100003EB422253F8203039605749B960FA60F8
:104F20007B60C7F800B062B6B8F1000F1FD14FF038
:104F300000082B685E68FFF799FD01464FF4807208
:104F40002846B047C0B9FFF7C3FC2378002BF0D048
:104F50000021217072B6D9F8003093F80A24002A93
:104F6000D2D10123237062B6B8F1000FDFD09E21A9
:104F70000220FFF7B7FEDAE7FFF778FD4FF4007283
:104F80000021FBF7D5FFFFF7A3FCFFF76FFD4FF400
:104F900000720021FBF7CCFFFFF79AFCF0210F20F5
:104FA000FFF7A0FE9F210220FFF79CFE06E000F025
:104FB00097FB00F017FA62B600F0CAF972B62378D0
:104FC000002BF4D062B62549274A264B102048838F
:104FD0004FF48031C2F880100022DA6172B61B4AA9
:104FE000136823F08063136062B6D9F8000018B12B
:104FF00040F20C410CF0A0FC00F026F901A950464B
:1050000000F072FC00F034F903B0BDE8F08F2846E0
:1050100098476EE762B600F017F901A9504600F014
:1050200063FC00F025F90CF0E3FCF4E700F020F954
:105030000CF0DEFC72B6EDE7ECE700F019F90DF0CC
:1050400069F900F015F90DF065F900BF003802406C
:10505000000402400008024000000240000C024030
:10506000C0430020003C004000E100E0C5480008CB
:1050700000020010886002400C3C0040A0060010B6
:10508000512C02001F4970B41F4CB1F9086034F86C
:1050900016500246EB08400748BF5B19900748BF0F
:1050A00003EB5503D007C86848BF03EB950315070A
:1050B0004CBFC01AC018B0F5004F0FDB224447F6B2
:1050C000FF7092F9B430C86033441BB2002B14DB7C
:1050D000582BC8BF582370BC0B817047224410F571
:1050E000004F92F9B430B4BF0848C86033441BB2D3
:1050F000ACBF00B2C860002BEADA002370BC0B81A1
:10510000704700BFC4060010706A02080080FFFFED
:1051100003F026BA08B572B605F0CAFE0D480E4A6D
:105120000E49121AFBF7BCFD0D480E4A0021121A57
:10513000FBF7FEFE00F04CFFBFF34F8F0A490B4B0D
:10514000CA6802F4E0621343CB60BFF34F8F00BF25
:10515000FDE700BF00020010A0060010388E020814
:10516000A0060010000A001000ED00E00400FA059F
:10517000684620F007018D4601B5054880F309888F
:1051800040F2020080F31488BFF36F8FFFF7C2FF75
:1051900000000220114B1968D9B1F0B4D0E90467BE
:1051A000D1E90445B44275EB07030ADB0146F0BCC4
:1051B0000A4800F061BFD1E90445B44275EB07032A
:1051C00002DA09680029F6D10246F0BC034800F073
:1051D0005DBF0146014800F04FBF00BFD40600107C
:1051E0000FB400B583B004A951F8040B0191FDF789
:1051F000A9F903B05DF804EB04B0704710B572B6BE
:10520000064C237AFF2B02D00133237210BD0620F7
:1052100000F01AFD237A0133237210BDD40600106A
:1052200010B5084C237A3BB1013BDBB2237213B9B2
:10523000637A03B162B610BD042000F005FD237A45
:10524000F2E700BFD4060010084901F10C0353E84F
:10525000002F531C01F10C0C4CE800300028F4D155
:10526000FE2A00DC7047062000F0EEBCD4060010D9
:105270000E4A02F10C0353E8001F4B1E02F10C0C06
:105280004CE800300028F4D1002904DD137A0BB972
:10529000012903D07047032000F0D6BC117C0029FF
:1052A000F8D01374002300DFF4E700BFD406001029
:1052B00038B5084C0025637C002BFCD0FFF7C4FFF9
:1052C000657400F051FFFFF7D3FFF4E7FFF7D0FF5D
:1052D0000CF08EFBD4060010EFF31080B0FA80F0D3
:1052E00040097047704700BF704700BF2DE9F04785
:1052F000DFF85890D9F800301BB306460F464FF040
:105300000008CA46D3E90445A64277EB05021946D0
:10531000504613DB9A68D9F81430147BB2F9005068
:1053200024F003041473B3F900309D42C8BF4FF05A
:10533000010800F0BBFE03460028E3D14046BDE86B
:10534000F08798464046BDE8F08700BFD4060010BD
:10535000002300DF704700BFF0B587B072B6184C6D
:10536000184E0B460246616900200027B242CDE983
:105370000101009073EB0700BCBF3B463246CDE90C
:1053800004230B7B6D4643F002030B732846FFF7A3
:1053900001FF62B6002300DF72B6019B33B10848FB
:1053A000294600F083FE62B607B0F0BD2368AB4229
:1053B000F5D062B607B0F0BD62B60CF019FB00BFC5
:1053C000D4060010A086010010B5044605F0FEFBCF
:1053D000034BE3FB0401BDE81040FFF7BDBF00BF76
:1053E00040420F00034B5A69137B43F001031373D0
:1053F000704700BFD406001072B6037B23F0010390
:10540000037362B6704700BFFFF7F6BF037B23F05C
:1054100001030373704700BF0088704738B50D4D16
:105420006B690024DA691259B2F1AA3F04F104044D
:1054300003D0012000F008FC6B69102CF2D11A6A2D
:10544000DB6910339A4200D338BDBDE838400120F3
:1054500000F0FABBD406001070B506460024C6E979
:1054600005440120F161B660308074603473348289
:1054700006F1200106F1880541F8044B8D42FBD16D
:10548000C6E92544C6F88820C6F89C40C6F88C407A
:105490002BB1114B1B68C6F89030304670BD5020C0
:1054A0000DF006F8C6F89000502200210446FBF7E4
:1054B0003FFD0A4B636003F1800203F58073C4E98A
:1054C0000223304670BDD6F8943013B1022000F0AC
:1054D000BBFB0CF08DFA00BFC472020880080010FC
:1054E00010B50446D0F8900058B10A4B1B6898429A
:1054F00007D0FBF799FDD4F8900010B150210CF0C3
:105500001BFAD4F8943013B1022000F09DFB204622
:1055100010BD00BFC47202082DE9F84F01F17B06EF
:1055200026F00706804606F1A0009DF828B00D463B
:1055300091461F46FBF764F8044690B300EB060A59
:105540002A465B4650462146FFF786FFDAF8905020
:10555000FDB14FF0AA31C4E90011C4E90211A6F16E
:1055600010024FF0BB3104F11000FBF7E1FC4B4699
:10557000524641460AF1200004F052FBFB0705D4D5
:105580009AF80C3043F010038AF80C305046BDE80E
:10559000F88F5046FFF7A4FF2046FBF73DF8AA46D8
:1055A000F4E78246F2E700BF034610B50846984785
:1055B00072B620494B691A7B42F00404D2061C7370
:1055C00012D4D3F88C202AB1D3F88C100A7B22F0A5
:1055D00020020A73C3F88C0062B6002300DF0220A9
:1055E000BDE8104000F030BB01234B74F4E7012903
:1055F00011D10CF0CBFA04460F48FFF7F1FD2368F8
:1056000020469B68984701460C48FFF7E9FD0CF0DF
:10561000FBFA0020CCE70CF0B9FA0748FFF7E0FDF1
:10562000F5E70CF0F1FA0CF0E3F90CF0EDFA0CF000
:10563000DFF900BFD406001058750208887502080B
:1056400038B50B4C6269257A137B002143F00103C6
:105650002172137362B6002300DF72B6237A0BB98E
:10566000257238BD022000F0EFFA257238BD00BF68
:10567000D406001038B572B6094C0023E568E36023
:10568000FFF7DEFFE36813B9E56062B638BD0220BC
:1056900000F0DAFAE56062B638BD62B60CF0A8F93F
:1056A000D406001010B582B00122002300920A48EF
:1056B0001A464FF48071FFF72FFF044620B1074BC5
:1056C00020465C6102B010BD00F0BEFA034B2046DC
:1056D0005C6102B010BD00BFB1520008D4060010DA
:1056E000024B586900B17047FFF7DCBFD4060010C9
:1056F00008B5054B586910B1D0F8900008BDFFF708
:10570000D1FFD0F8900008BDD406001070B5164E39
:10571000756982B00DB301220023009213481A4626
:105720004FF48051FFF7F8FE0446D0B120464FF009
:10573000010100F001FD60B1284600F0B1FD0C4808
:1057400002F058FA0123737202B0BDE8704004F011
:1057500083BA022000F078FAEEE7FFF7A3FF0546D0
:10576000D9E700F071FAE1E7D4060010C15E000845
:10577000F1560008024B0022C3E90022704700BF27
:10578000D40600102DE9F047914201F1FF3589461A
:1057900005EBD57506461F4627DD90466D1007E0E0
:1057A00056F8253046F82930A845A94619DA254685
:1057B00056F82500FFF730FE82463846FFF72CFEEC
:1057C0000FFA8AFA6C1E00B204EBD474504506EB53
:1057D000850206EB89034FEA6404E1DC1F60BDE843
:1057E000F08713461F60BDE8F08700EB8103F5E703
:1057F0002DE9F04F2DED028B83B008EE103A0192A7
:10580000013A02EBD272B1EB620F0091064641DA27
:105810004FEA62088B4600E0AB460BF101046500DD
:105820006F1E56F8340056F827A0FFF7F5FD8146A5
:105830005046FFF7F1FD0FFA89F900B2484506EB33
:10584000870306EBC404C4BF1C463D46236846F8E4
:105850002B304545E0DB019B1A46D20706D4A3F165
:10586000020909EBD979B5EB690F0BD018EE103AA4
:10587000009A2946304603B0BDEC028BBDE8F04FDC
:10588000FFF780BF6B00013356F8232046F8252030
:105890001D46EBE7009DDEE7091A042915DDF8B582
:1058A0008E10B41E04EBD4746410651C074600EB24
:1058B000850500E0013C55F8043D32462146384656
:1058C000FFF796FF002CF5D1F8BD704701394FF076
:1058D000000218BF4FF0FF31C0E90022C0E90222E8
:1058E00041610261704700BFF8B50446FFF7F8FE5A
:1058F0002368834201D00020F8BD6369002B76DC69
:105900004569A542064669D16368436107467D69DA
:10591000002D00F08B80B7F9107001E06D688DB13B
:10592000D5E902329A42F9D01868FFF775FD00B246
:10593000B842F3DDAB681868FFF76EFD6D6807B21B
:10594000002DEDD12068FFF767FD00B2B84203D00B
:105950002068394600F060FCD4E90212914249D037
:10596000531A08682060042BA2F104054FDC8369F8
:10597000E560A34203D0022000F066F9206800230E
:105980008361FFF741FD25686B69002B65D0D4E981
:105990000212914263606C610BD02846FFF73CFD18
:1059A000A36805461868FFF737FD2DB200B2A8427C
:1059B00049DC3046FFF730FD034620681CB2FFF794
:1059C0002BFD00B2A042D4BF00200120F8BD022070
:1059D00000F03AF96B689C4205D01D466B68002BBD
:1059E000F5D09C42F9D1D4E900736B608FE7013B9D
:1059F000636180E70025C4E902552560256100291F
:105A00003FF479AF08460BF095FF2846F8BD0868CB
:105A100052F8043C42F8040C6A1A0846921000211D
:105A2000FFF7E6FEE5682068043DA0E73846FFF78B
:105A3000F3FCB7F9103000B298428DD02068018A8B
:105A400000F0EAFB88E7A36825681868FFF7E4FC24
:105A50000146284600F0E0FBABE72846FFF7DCFCF8
:105A6000288225686B6992E72DE9F04FD0E900A6FE
:105A70006FF06047A6EB0A03B7EBA30F83B04CD0DF
:105A800093469A1004468946A1EB0A03002A42D0A5
:105A9000B2EB420F4FEA42081FD9244F0193384618
:105AA0000CF006FD019B054600EB07081F1DDBF807
:105AB0000020EA50A6EB09062F44002B07EB060B4B
:105AC00010DC002E15DCBAF1000F1AD1C4E9005B1E
:105AD000C4F8088003B0BDE8F08FB8F1000F1FD103
